{
    "_format": "hh-sol-artifact-1",
    "contractName": "FreelanceEscrow",
    "sourceName": "contracts/FreelanceEscrow.sol",
    "abi": [
        {
            "inputs": [
                {
                    "internalType": "address",
                    "name": "_freelancer",
                    "type": "address"
                }
            ],
            "stateMutability": "nonpayable",
            "type": "constructor"
        },
        {
            "inputs": [],
            "name": "amount",
            "outputs": [
                {
                    "internalType": "uint256",
                    "name": "",
                    "type": "uint256"
                }
            ],
            "stateMutability": "view",
            "type": "function"
        },
        {
            "inputs": [],
            "name": "client",
            "outputs": [
                {
                    "internalType": "address",
                    "name": "",
                    "type": "address"
                }
            ],
            "stateMutability": "view",
            "type": "function"
        },
        {
            "inputs": [],
            "name": "freelancer",
            "outputs": [
                {
                    "internalType": "address",
                    "name": "",
                    "type": "address"
                }
            ],
            "stateMutability": "view",
            "type": "function"
        },
        {
            "inputs": [],
            "name": "fundContract",
            "outputs": [],
            "stateMutability": "payable",
            "type": "function"
        },
        {
            "inputs": [],
            "name": "isFunded",
            "outputs": [
                {
                    "internalType": "bool",
                    "name": "",
                    "type": "bool"
                }
            ],
            "stateMutability": "view",
            "type": "function"
        },
        {
            "inputs": [],
            "name": "isReleased",
            "outputs": [
                {
                    "internalType": "bool",
                    "name": "",
                    "type": "bool"
                }
            ],
            "stateMutability": "view",
            "type": "function"
        },
        {
            "inputs": [],
            "name": "releasePayment",
            "outputs": [],
            "stateMutability": "nonpayable",
            "type": "function"
        }
    ],
    "bytecode": "0x608060405234801561001057600080fd5b506040516108783803806108788339818101604052810190610032919061011c565b336000806101000a81548173ffffffffffffffffffffffffffffffffffffffff021916908373ffffffffffffffffffffffffffffffffffffffff16021790555080600160006101000a81548173ffffffffffffffffffffffffffffffffffffffff021916908373ffffffffffffffffffffffffffffffffffffffff16021790555050610149565b600080fd5b600073ffffffffffffffffffffffffffffffffffffffff82169050919050565b60006100e9826100be565b9050919050565b6100f9816100de565b811461010457600080fd5b50565b600081519050610116816100f0565b92915050565b600060208284031215610132576101316100b9565b5b600061014084828501610107565b91505092915050565b610720806101586000396000f3fe6080604052600436106100705760003560e01c8063aa8c217c1161004e578063aa8c217c146100f6578063bd097e2114610121578063d116c8c41461012b578063fa2a89971461014257610070565b8063109e94cf146100755780637c654303146100a0578063a37dda2c146100cb575b600080fd5b34801561008157600080fd5b5061008a61016d565b60405161009791906104a4565b60405180910390f35b3480156100ac57600080fd5b506100b5610191565b6040516100c291906104da565b60405180910390f35b3480156100d757600080fd5b506100e06101a4565b6040516100ed91906104a4565b60405180910390f35b34801561010257600080fd5b5061010b6101ca565b604051610118919061050e565b60405180910390f35b6101296101d0565b005b34801561013757600080fd5b506101406102d2565b005b34801561014e57600080fd5b50610157610450565b60405161016491906104da565b60405180910390f35b60008054906101000a900473ffffffffffffffffffffffffffffffffffffffff1681565b600360009054906101000a900460ff1681565b600160009054906101000a900473ffffffffffffffffffffffffffffffffffffffff1681565b60025481565b60008054906101000a900473ffffffffffffffffffffffffffffffffffffffff1673ffffffffffffffffffffffffffffffffffffffff163373ffffffffffffffffffffffffffffffffffffffff161461025e576040517f08c379a000000000000000000000000000000000000000000000000000000000815260040161025590610586565b60405180910390fd5b600360009054906101000a900460ff16156102ae576040517f08c379a00000000000000000000000000000000000000000000000000000000081526004016102a5906105f2565b60405180910390fd5b346002819055506001600360006101000a81548160ff021916908315150217905550565b60008054906101000a900473ffffffffffffffffffffffffffffffffffffffff1673ffffffffffffffffffffffffffffffffffffffff163373ffffffffffffffffffffffffffffffffffffffff1614610360576040517f08c379a00000000000000000000000000000000000000000000000000000000081526004016103579061065e565b60405180910390fd5b600360009054906101000a900460ff1680156103895750600360019054906101000a900460ff16155b6103c8576040517f08c379a00000000000000000000000000000000000000000000000000000000081526004016103bf906106ca565b60405180910390fd5b6001600360016101000a81548160ff021916908315150217905550600160009054906101000a900473ffffffffffffffffffffffffffffffffffffffff1673ffffffffffffffffffffffffffffffffffffffff166108fc6002549081150290604051600060405180830381858888f1935050505015801561044d573d6000803e3d6000fd5b50565b600360019054906101000a900460ff1681565b600073ffffffffffffffffffffffffffffffffffffffff82169050919050565b600061048e82610463565b9050919050565b61049e81610483565b82525050565b60006020820190506104b96000830184610495565b92915050565b60008115159050919050565b6104d4816104bf565b82525050565b60006020820190506104ef60008301846104cb565b92915050565b6000819050919050565b610508816104f5565b82525050565b600060208201905061052360008301846104ff565b92915050565b600082825260208201905092915050565b7f4f6e6c7920636c69656e742063616e2066756e64000000000000000000000000600082015250565b6000610570601483610529565b915061057b8261053a565b602082019050919050565b6000602082019050818103600083015261059f81610563565b9050919050565b7f416c72656164792066756e646564000000000000000000000000000000000000600082015250565b60006105dc600e83610529565b91506105e7826105a6565b602082019050919050565b6000602082019050818103600083015261060b816105cf565b9050919050565b7f4f6e6c7920636c69656e742063616e2072656c65617365000000000000000000600082015250565b6000610648601783610529565b915061065382610612565b602082019050919050565b600060208201905081810360008301526106778161063b565b9050919050565b7f496e76616c696420737461746500000000000000000000000000000000000000600082015250565b60006106b4600d83610529565b91506106bf8261067e565b602082019050919050565b600060208201905081810360008301526106e3816106a7565b905091905056fea26469706673582212202cf0e7ac45e5142a70fcf3d6a2b88add8ff57125d2bb5d783e45f5802461047964736f6c634300081c0033",
    "linkReferences": {},
    "deployedLinkReferences": {}
}