{
  "_format": "hh-sol-artifact-1",
  "contractName": "FreelanceEscrow",
  "sourceName": "contracts/FreelanceEscrow.sol",
  "abi": [
    {
      "inputs": [
        {
          "internalType": "address",
          "name": "_freelancer",
          "type": "address"
        }
      ],
      "stateMutability": "nonpayable",
      "type": "constructor"
    },
    {
      "anonymous": false,
      "inputs": [
        {
          "indexed": true,
          "internalType": "address",
          "name": "client",
          "type": "address"
        },
        {
          "indexed": false,
          "internalType": "uint256",
          "name": "amount",
          "type": "uint256"
        }
      ],
      "name": "ContractFunded",
      "type": "event"
    },
    {
      "anonymous": false,
      "inputs": [
        {
          "indexed": true,
          "internalType": "address",
          "name": "client",
          "type": "address"
        },
        {
          "indexed": false,
          "internalType": "uint256",
          "name": "amount",
          "type": "uint256"
        }
      ],
      "name": "ContractRefunded",
      "type": "event"
    },
    {
      "anonymous": false,
      "inputs": [
        {
          "indexed": true,
          "internalType": "address",
          "name": "freelancer",
          "type": "address"
        },
        {
          "indexed": false,
          "internalType": "uint256",
          "name": "amount",
          "type": "uint256"
        }
      ],
      "name": "PaymentReleased",
      "type": "event"
    },
    {
      "inputs": [],
      "name": "amount",
      "outputs": [
        {
          "internalType": "uint256",
          "name": "",
          "type": "uint256"
        }
      ],
      "stateMutability": "view",
      "type": "function"
    },
    {
      "inputs": [],
      "name": "client",
      "outputs": [
        {
          "internalType": "address",
          "name": "",
          "type": "address"
        }
      ],
      "stateMutability": "view",
      "type": "function"
    },
    {
      "inputs": [],
      "name": "freelancer",
      "outputs": [
        {
          "internalType": "address",
          "name": "",
          "type": "address"
        }
      ],
      "stateMutability": "view",
      "type": "function"
    },
    {
      "inputs": [],
      "name": "fundContract",
      "outputs": [],
      "stateMutability": "payable",
      "type": "function"
    },
    {
      "inputs": [],
      "name": "getContractDetails",
      "outputs": [
        {
          "internalType": "address",
          "name": "",
          "type": "address"
        },
        {
          "internalType": "address",
          "name": "",
          "type": "address"
        },
        {
          "internalType": "uint256",
          "name": "",
          "type": "uint256"
        },
        {
          "internalType": "bool",
          "name": "",
          "type": "bool"
        },
        {
          "internalType": "bool",
          "name": "",
          "type": "bool"
        }
      ],
      "stateMutability": "view",
      "type": "function"
    },
    {
      "inputs": [],
      "name": "isFunded",
      "outputs": [
        {
          "internalType": "bool",
          "name": "",
          "type": "bool"
        }
      ],
      "stateMutability": "view",
      "type": "function"
    },
    {
      "inputs": [],
      "name": "isReleased",
      "outputs": [
        {
          "internalType": "bool",
          "name": "",
          "type": "bool"
        }
      ],
      "stateMutability": "view",
      "type": "function"
    },
    {
      "inputs": [],
      "name": "refundContract",
      "outputs": [],
      "stateMutability": "nonpayable",
      "type": "function"
    },
    {
      "inputs": [],
      "name": "releasePayment",
      "outputs": [],
      "stateMutability": "nonpayable",
      "type": "function"
    }
  ],
  "bytecode": "0x608060405234801561001057600080fd5b50604051610d8d380380610d8d8339818101604052810190610032919061011c565b336000806101000a81548173ffffffffffffffffffffffffffffffffffffffff021916908373ffffffffffffffffffffffffffffffffffffffff16021790555080600160006101000a81548173ffffffffffffffffffffffffffffffffffffffff021916908373ffffffffffffffffffffffffffffffffffffffff16021790555050610149565b600080fd5b600073ffffffffffffffffffffffffffffffffffffffff82169050919050565b60006100e9826100be565b9050919050565b6100f9816100de565b811461010457600080fd5b50565b600081519050610116816100f0565b92915050565b600060208284031215610132576101316100b9565b5b600061014084828501610107565b91505092915050565b610c35806101586000396000f3fe6080604052600436106100865760003560e01c8063aa8c217c11610059578063aa8c217c1461013b578063bd097e2114610166578063d116c8c414610170578063e2080b5614610187578063fa2a89971461019e57610086565b8063109e94cf1461008b5780637c654303146100b65780639dfc9117146100e1578063a37dda2c14610110575b600080fd5b34801561009757600080fd5b506100a06101c9565b6040516100ad919061088e565b60405180910390f35b3480156100c257600080fd5b506100cb6101ed565b6040516100d891906108c4565b60405180910390f35b3480156100ed57600080fd5b506100f6610200565b6040516101079594939291906108f8565b60405180910390f35b34801561011c57600080fd5b50610125610281565b604051610132919061088e565b60405180910390f35b34801561014757600080fd5b506101506102a7565b60405161015d919061094b565b60405180910390f35b61016e6102ad565b005b34801561017c57600080fd5b5061018561041f565b005b34801561019357600080fd5b5061019c61060f565b005b3480156101aa57600080fd5b506101b361083a565b6040516101c091906108c4565b60405180910390f35b60008054906101000a900473ffffffffffffffffffffffffffffffffffffffff1681565b600360009054906101000a900460ff1681565b60008060008060008060009054906101000a900473ffffffffffffffffffffffffffffffffffffffff16600160009054906101000a900473ffffffffffffffffffffffffffffffffffffffff16600254600360009054906101000a900460ff16600360019054906101000a900460ff16945094509450945094509091929394565b600160009054906101000a900473ffffffffffffffffffffffffffffffffffffffff1681565b60025481565b60008054906101000a900473ffffffffffffffffffffffffffffffffffffffff1673ffffffffffffffffffffffffffffffffffffffff163373ffffffffffffffffffffffffffffffffffffffff161461033b576040517f08c379a0000000000000000000000000000000000000000000000000000000008152600401610332906109c3565b60405180910390fd5b600360009054906101000a900460ff161561038b576040517f08c379a000000000000000000000000000000000000000000000000000000000815260040161038290610a2f565b60405180910390fd5b346002819055506001600360006101000a81548160ff02191690831515021790555060008054906101000a900473ffffffffffffffffffffffffffffffffffffffff1673ffffffffffffffffffffffffffffffffffffffff167f0939f6f4877faf071412e527bc4c6d0bd65ad077e52b57334f7765265647a7f1600254604051610415919061094b565b60405180910390a2565b60008054906101000a900473ffffffffffffffffffffffffffffffffffffffff1673ffffffffffffffffffffffffffffffffffffffff163373ffffffffffffffffffffffffffffffffffffffff16146104ad576040517f08c379a00000000000000000000000000000000000000000000000000000000081526004016104a490610a9b565b60405180910390fd5b600360009054906101000a900460ff1680156104d65750600360019054906101000a900460ff16155b610515576040517f08c379a000000000000000000000000000000000000000000000000000000000815260040161050c90610b07565b60405180910390fd5b6001600360016101000a81548160ff021916908315150217905550600160009054906101000a900473ffffffffffffffffffffffffffffffffffffffff1673ffffffffffffffffffffffffffffffffffffffff166108fc6002549081150290604051600060405180830381858888f1935050505015801561059a573d6000803e3d6000fd5b50600160009054906101000a900473ffffffffffffffffffffffffffffffffffffffff1673ffffffffffffffffffffffffffffffffffffffff167fdf20fd1e76bc69d672e4814fafb2c449bba3a5369d8359adf9e05e6fde87b056600254604051610605919061094b565b60405180910390a2565b60008054906101000a900473ffffffffffffffffffffffffffffffffffffffff1673ffffffffffffffffffffffffffffffffffffffff163373ffffffffffffffffffffffffffffffffffffffff161461069d576040517f08c379a000000000000000000000000000000000000000000000000000000000815260040161069490610b73565b60405180910390fd5b600360009054906101000a900460ff1615806106de5750600360009054906101000a900460ff1680156106dd5750600360019054906101000a900460ff16155b5b61071d576040517f08c379a000000000000000000000000000000000000000000000000000000000815260040161071490610bdf565b60405180910390fd5b6000600254905060006002819055506000600360006101000a81548160ff0219169083151502179055506000600360016101000a81548160ff02191690831515021790555060008054906101000a900473ffffffffffffffffffffffffffffffffffffffff1673ffffffffffffffffffffffffffffffffffffffff166108fc829081150290604051600060405180830381858888f193505050501580156107c8573d6000803e3d6000fd5b5060008054906101000a900473ffffffffffffffffffffffffffffffffffffffff1673ffffffffffffffffffffffffffffffffffffffff167f8e523e9a7554dff0a6a239c6c82fc50fa1b763168ada16af82f50bfd2e4e30078260405161082f919061094b565b60405180910390a250565b600360019054906101000a900460ff1681565b600073ffffffffffffffffffffffffffffffffffffffff82169050919050565b60006108788261084d565b9050919050565b6108888161086d565b82525050565b60006020820190506108a3600083018461087f565b92915050565b60008115159050919050565b6108be816108a9565b82525050565b60006020820190506108d960008301846108b5565b92915050565b6000819050919050565b6108f2816108df565b82525050565b600060a08201905061090d600083018861087f565b61091a602083018761087f565b61092760408301866108e9565b61093460608301856108b5565b61094160808301846108b5565b9695505050505050565b600060208201905061096060008301846108e9565b92915050565b600082825260208201905092915050565b7f4f6e6c7920636c69656e742063616e2066756e64000000000000000000000000600082015250565b60006109ad601483610966565b91506109b882610977565b602082019050919050565b600060208201905081810360008301526109dc816109a0565b9050919050565b7f416c72656164792066756e646564000000000000000000000000000000000000600082015250565b6000610a19600e83610966565b9150610a24826109e3565b602082019050919050565b60006020820190508181036000830152610a4881610a0c565b9050919050565b7f4f6e6c7920636c69656e742063616e2072656c65617365000000000000000000600082015250565b6000610a85601783610966565b9150610a9082610a4f565b602082019050919050565b60006020820190508181036000830152610ab481610a78565b9050919050565b7f496e76616c696420737461746500000000000000000000000000000000000000600082015250565b6000610af1600d83610966565b9150610afc82610abb565b602082019050919050565b60006020820190508181036000830152610b2081610ae4565b9050919050565b7f4f6e6c7920636c69656e742063616e20726566756e6400000000000000000000600082015250565b6000610b5d601683610966565b9150610b6882610b27565b602082019050919050565b60006020820190508181036000830152610b8c81610b50565b9050919050565b7f43616e6e6f7420726566756e642061667465722072656c656173650000000000600082015250565b6000610bc9601b83610966565b9150610bd482610b93565b602082019050919050565b60006020820190508181036000830152610bf881610bbc565b905091905056fea2646970667358221220f24717dd2cbfa526bb19f00dd4315cb3bad8c89e0fe27f3d65e9599c03f659c164736f6c634300081c0033",
  "linkReferences": {},
  "deployedLinkReferences": {}
}